:020000040800F2
:10000000B81700202103000825030008CD020008CE
:10001000290300082B0300082D030008000000003E
:100020000000000000000000000000002F03000896
:1000300031030008000000001B020008D104000882
:1000400037030008370300083703000837030008A8
:100050003703000837030008370300083703000898
:100060003703000837030008370300083703000888
:100070003703000837030008370300083703000878
:100080003703000837030008370300083703000868
:100090003703000837030008370300083703000858
:1000A0003703000837030008370300083703000848
:1000B0003703000837030008370300083703000838
:1000C0003703000837030008370300083703000828
:1000D00037030008750500083703000837030008D8
:1000E0003703000837030008370300083703000808
:1000F00037030008370300083703000837030008F8
:1001000037030008370300083703000837030008E7
:1001100037030008370300083703000837030008D7
:1001200037030008370300083703000837030008C7
:1001300037030008370300083703000837030008B7
:1001400037030008370300083703000837030008A7
:100150003703000837030008370300083703000897
:100160003703000837030008370300083703000887
:100170003703000837030008370300083703000877
:100180003703000837030008370300083703000867
:100190003703000800000000370300083703000899
:1001A0003703000837030008370300083703000847
:1001B0003703000837030008370300083703000837
:1001C0003703000837030008370300083703000827
:1001D0003703000837030008DFF80CD000F0C0F840
:1001E0000048004785030008B8170020EFF310808F
:1001F00072B6704780F310887047424A1368012B2B
:1002000004D04FF0010313603F4A10603F4A116071
:100210003F484FF0805101607047EFF3108272B693
:100220003848016851B34FF0000101603648016859
:1002300091B1EFF309811EF0100F08BF21ED108B73
:1002400021E9F00F4FF000041EF0100F08BF012449
:1002500041F8044D006801602C490968096808C923
:10026000B1E8F00F002B18BFB1EC108B81F30988B7
:100270004EF0100E002B18BF2EF0100E82F31088D7
:100280004EF0040E704721490860EFF3148222F00B
:10029000040282F314881C494FF0000008601949D9
:1002A0004FF0010008601B481B49D0F8002041EACC
:1002B0000201016016484FF0805101601748006844
:1002C000006880F3088861B662B670471EF0040FBC
:1002D0000CBFEFF30880EFF3098020E9F00F40F83E
:1002E00004ED40F804ED1EF0040F0CBF80F3088805
:1002F00080F3098800B500F045FD5DF804EB4EF091
:10030000040E7047A0130020041100200C110020DF
:1003100004ED00E020ED00E00000FFFF08ED00E04C
:1003200005480047FEE7FEE7FEE7FEE7FEE7FEE7DB
:10033000FEE7FEE7FEE7FEE7D9010008D2B201E0E2
:1003400000F8012B491EFBD270470022F6E710B5DA
:1003500013460A4604461946FFF7F0FF204610BD33
:10036000064C074D06E0E06840F0010394E8070002
:1003700098471034AC42F6D3FFF732FFF824000858
:100380001825000880B501F025FF002080BD000081
:1003900000F0070000F1040CC31EBCF1070F38BFCA
:1003A000002380F00700042828BF04204FF0010C30
:1003B0000CFA00F00138084098400CFA03F10139BA
:1003C0001140084370470000B0B5044600F01CF926
:1003D00094F900506178A278FFF7DAFF01462846C9
:1003E00000F01AF92078E17840B201291CBFBDE87D
:1003F000B04000F0E1B8BDE8B04000F0F3B8000054
:1004000041F20000C4F20200016841F48031016051
:100410004FF400514FF6FF7205E000BF0139114261
:1004200004BF01207047036813F4003FF6D0016851
:1004300021F0807101604FF400514FF6FF7204E02B
:100440000139114204BF01207047036813F0007F97
:10045000F6D10121816047F28001C4F200010A68EF
:1004600022F480720A604FF48051425822F00F0249
:100470004250425842F00402425044F24341C160AB
:10048000016841F0807101604FF470414FF6FF72D6
:1004900005E000BF0139114204BF01207047036825
:1004A00013F0007FF6D0C16841F08071C1608168AF
:1004B00041F00301816000BF816801F00C010C294B
:1004C000FAD1816821F0F0018160002070470000BE
:1004D00080B500F047FD01F04FFBBDE8804000F023
:1004E0004FBD000041F20C00C4F2020050F8041CA1
:1004F00001F00C0343F20062C0F26E124FF680610D
:10050000C0F621210C2B04D0082B1BD0042B1FD1AB
:1005100019E0036803F00303022B08BF0A460168D1
:10052000C1F303110131B2FBF1F10268C2F30622FB
:1005300051430268C2F34162022303EB4202B1FB62
:10054000F2F100E0114640F20002C2F20002116036
:1005500050F8040CC0F3031042F24831C0F6000119
:10056000085C40F20001C2F200010A6822FA00F0C1
:100570000860704743F61C00C4F20100016811F0E6
:10058000200F18BF80687047411E0020B0EB116F2C
:1005900018BF70474EF21002CEF2000251604EF6C4
:1005A0002351CEF200014FF0FF030B7090604FF02B
:1005B00007001060704700000028B8BF704700F0C7
:1005C0001F014FF0010202FA01F14FEA50104EF202
:1005D0008012CEF2000242F82010BFF34F8FBFF31B
:1005E0006F8F70470028B8BF704700F01F014FF0B1
:1005F000010202FA01F14FEA50104EF20012CEF25F
:10060000000242F8201070474EF60C50CEF2000067
:100610000068C0F30220704700F1604C00F00F0347
:100620004EF61452CEF200021A44B0F1FF3FC8BF9A
:100630000CF564420801107070470000002804BFE8
:1006400000207047C1B209B101200DE010F47F41D4
:1006500002D0090A092007E010F47F0102D0090C3A
:10066000112001E0010E192042F25832C0F60002BA
:10067000515C08447047000041F29410C2F200003F
:100680000168081A18BF012070470000F0B583B058
:100690001D4616460F46044604F1140000F0CCFC3B
:1006A000C4E90876A562089AE2622846232100F090
:1006B000E3FD04F120030FCB1A44043A41F6B503DD
:1006C000C0F6000300F02CFCE061099884F83600C5
:1006D00084F835000020A0630A99C4E90F11206353
:1006E00084F83400C4E91C00CDE9000004F14400A2
:1006F00041F6ED22C0F600022146234601F0E8FA59
:1007000003B0F0BDDDF800C00CF0FE0C80F809C0AD
:100710004FF0000CC16102624362C0F828C014307F
:1007200000F08EBC143000F0E9BC0000B0B5054606
:10073000FFF75CFD0446296F00291CBF2846884747
:100740002046BDE8B040FFF755BD000003680A2908
:100750000BD14CF6CD41CCF6CC41A3FB0112D20813
:1007600002EB8201A3EB410102E01A0903F00F0141
:10077000026008467047000080B51C2303EA810C24
:100780000F2303FA0CFE7C2303EA51010844016A9B
:1007900021EA0E01016202FA0CF1026A11430162C0
:1007A00080BD000010B54FEA410C4FF0030E0EFA69
:1007B0000CFE046824EA0E04046002FA0CF20468D9
:1007C0002243026001228A40446824EA0202426015
:1007D00003FA01F1426811434160816821EA0E0188
:1007E0008160029901FA0CF1826811438160C1684D
:1007F00021EA0E01C160039901FA0CF1C2681143AC
:10080000C16010BD80B500BF012000F047F8642032
:1008100001F04AF8F8E7000070B582B041F24C00F0
:10082000C4F20200016841F01001016001250226B6
:10083000CDE9006541F20004C4F600042046002121
:1008400001220023FFF7AEFFCDE90065204601211C
:1008500001220023FFF7A6FFCDE900652046022113
:1008600001220023FFF79EFF002000F009F801207D
:1008700000F006F8022002B0BDE87040AFF300803F
:10088000012101FA00F041F21401C4F600010A68E6
:1008900082430A600A68104308607047012101FA28
:1008A00000F041F21401C4F600010A6822EA0000D7
:1008B0000860704780B501F067FC002080BD000033
:1008C00080B500F067F9BDE88040FFF7F3BF000096
:1008D000426840F24C01C2F200010B681A448242A5
:1008E0001AD05388C3B940F24803C2F200031B6810
:1008F0009A4211D040F2EC0CC2F2000CDCF800304D
:10090000934208BFCCF800005368436052680B68FC
:100910001A44A0EB0303936080B5D0F808E009689F
:1009200001EB0E03834208BF80BD5A8802B180BD2F
:1009300040F2EC0CC2F2000CDCF80020824208BF4E
:10094000CCF8003042685A6040680844C0F808E0BB
:1009500080BD00002DE9F04F87B099460D468246D4
:100960000692129C69A00FF2B81B14F0400F18BF3A
:10097000834614F0100F18BF24F0010414F0020F86
:1009800001D1002008E00698B0F1FF3F1BDD6107B0
:100990001DD404F00800800001900698D8B1069894
:1009A0000026E0B106AF0DF1080800BF3846494601
:1009B000FFF7CCFE1BF8000008F806000136069889
:1009C0000028F3D10BE0404206902D2100E02B21BE
:1009D00001910028E3D130208DF8080001261198FC
:1009E00086420146C8BF3146109AA2EB010C14F0B2
:1009F000110F57D0DDF804E0BEF1000F07D0AA4573
:100A000038BF8AF800E00AF1010AACF1010CE206F5
:100A100014D4BCF1010F6CDB202264F30412634692
:100A2000544600BFAC4238BF2270A3F1010304F169
:100A30000104002BF6DCE2444FF0FF3C86420CDA66
:100A40008A1B3023574600BF0139AF4238BF3B7085
:100A500007F101078E42F7DB924478B1012E0DDBDE
:100A600002A900BFAA453EBF8A1912F8012C8AF8D4
:100A700000200AF1010A08B1013EF3DCBCF1010FCC
:100A80000CDB0CF101002021AA4538BF8AF80010C8
:100A9000A0F101000AF1010A0128F5DC504607B077
:100AA000BDE8F08F0022BCF1000FC8BF0122DDF8C5
:100AB00004E0BEF1000F734618BF01231A40ACEBEF
:100AC000020CBCF1010F19DB20226346574600BF20
:100AD000AF4238BF3A70A3F1010307F10107002BC1
:100AE000F6DCE2444FF0FF3CBEF1000F7FF487AF2D
:100AF0008DE7ACF1010C8642A2DBAEE7ACF1010C54
:100B0000BEF1000F7FF47BAF81E700BF303132339D
:100B100034353637383941424344454600000000F9
:100B20003031323334353637383961626364656663
:100B30000000000080B582B014200A21CDE9001029
:100B400007A040F6C101C0F6000100224FF4007377
:100B500000F086FE02B0BDE8804000F08BBF00BF11
:100B60006D61696E00000000B0B542F2F044C0F65D
:100B7000000442F2EC40C0F60000A04228BFB0BD25
:100B800042F2EC45C0F6000555F8040B8047A5423B
:100B9000FAD3B0BDB0B542F2F444C0F6000442F25C
:100BA000F040C0F60000A04228BFB0BD42F2F045C0
:100BB000C0F6000555F8040B8047A542FAD3B0BD36
:100BC00080B5FFF713FB41F29011C2F200010A88D1
:100BD00001320A80BDE88040FFF70CBB80B5FFF70B
:100BE00005FB41F29011C2F200010A88013A0A8025
:100BF00012B2002AC4BFBDE88040FFF7FBBA4FF035
:100C000000020A80FFF7F6FA40F2FC00C2F2000090
:100C10000068002808BF80BDBDE8804000F0FCBB34
:100C200070B50446002C4FD040F24C06C2F20006CC
:100C30003068A04248D840F24800C2F20000006884
:100C4000A04298BF70BD40F25000C2F200004FF0C9
:100C5000FF3100F0A1FCA4F10C0534F80A0C18B126
:100C60002888B0F5F55F0AD018A000F0C3F934F871
:100C70000C3C34F80A2C1CA0294600F0BBF94FF4B8
:100C8000F55044F80C0C40F2EC00C2F20000016890
:100C9000A94288BF056054F8080CA5EB0000316834
:100CA000A0EB010041F2B431C2F200010A68104425
:100CB00008602846FFF70CFE40F25000C2F2000028
:100CC000BDE8704000F040BC70BD00BF746F20668E
:100CD00072656520612062616420646174612062D4
:100CE0006C6F636B3A0A00006D656D3A20307825B1
:100CF0003038782C207573656420666C61673A2003
:100D000025642C206D6167696320636F64653A20F8
:100D10003078253034780A0040F20410C2F2000026
:100D20007047000040F20410C2F2000000F580504D
:100D30007047000010B5FFF7D5FB40F20000C2F28B
:100D40000000006844F6D351C1F26201A0FB01012A
:100D50008809FFF719FCFFF753FB4FF4E13001F06E
:100D60006DFAFFF759FDFFF7FFFEFFF7D5FF0446C9
:100D7000FFF7D8FF01462046BDE8104000F0BABC9E
:100D80007047000010B5044604F1280040F200113D
:100D9000C2F20001096819B18847002808BF10BDD8
:100DA000616C42F2DE40C0F6000000F023F9A16A57
:100DB00042F29D40C0F6000000F01CF9E16A42F2E8
:100DC000AA40C0F6000000F015F9216B42F2B740CE
:100DD000C0F6000000F00EF9616B42F2C440C0F6AC
:100DE000000000F007F9A16842F2D140C0F600000F
:100DF00000F000F9E16822A000F0FCF8216924A0CD
:100E000000F0F8F8616926A000F0F4F8A16928A0C4
:100E100000F0F0F8E1692AA000F0ECF8216A2CA0BB
:100E200000F0E8F8616A2EA000F0E4F8A16B30A0B1
:100E300000F0E0F8E16B32A000F0DCF8216C34A0A7
:100E400000F0D8F82078400706D442F25840C0F6A7
:100E5000000000F0CFF808E000F0E0FD014642F2AB
:100E60007240C0F6000000F0C5F82078C00605D436
:100E700042F28F40C0F6000000F0BCF8FEE700BF71
:100E80007230353A203078253038780A000000007A
:100E90007230363A203078253038780A0000000069
:100EA0007230373A203078253038780A0000000058
:100EB0007230383A203078253038780A0000000047
:100EC0007230393A203078253038780A0000000036
:100ED0007231303A203078253038780A000000002E
:100EE0007231313A203078253038780A000000001D
:100EF0007231323A203078253038780A000000000C
:100F0000206C723A203078253038780A00000000D2
:100F10002070633A203078253038780A00000000CD
:100F200010B58446101D20F0070EAEF144006FF09E
:100F300043024BF6EF64CDF6AD6400BF4EF80240BD
:100F40000432FBD100224FF080744EE908124EE9C2
:100F50000622AEF1100181E80C104EF8044C4EF858
:100F6000442C10BD80B5FFF741F941F20811C2F2DF
:100F700000010A7801320A70BDE88040FFF73AB9F3
:100F800080B5FFF733F941F20811C2F200010A7887
:100F9000013A0A70BDE88040FFF72CB900681438A8
:100FA00000F01CBD70B516460C460546204600F004
:100FB00079FDA6B1012E18BF70BD28460068A84271
:100FC0000DD090F8211094F835208A42F6D21438CA
:100FD000143004F11401BDE8704000F04BB804F186
:100FE00014012846BDE8704000F044B8143000F009
:100FF0001BB8000083B010B581B0844603A80EC0B2
:1010000003AB009341F21014C2F2000420467F218A
:10101000624600F0F5FE2046FFF7B2FE01B0BDE8E3
:10102000104003B070470000C0E9000070470000A6
:10103000C0E9000070470000C0E9000070470000F0
:10104000C0E9000070470000026851600A6001605A
:101050004860704741F29411C2F200010A68506082
:101060000260086041607047026851600A60016078
:1010700048607047426811604A604160086070478C
:10108000426811604A6041600860704742681160C0
:101090004A604160086070470168081AB0FA80F041
:1010A000400970470168081AB0FA80F0400970479B
:1010B0000168081AB0FA80F040097047D0E90012C0
:1010C0004A6042681160C0E900007047D0E9001230
:1010D0004A6042681160C0E900007047D0E9001220
:1010E0004A6042681160C0E900007047D0E9001210
:1010F0004A6042681160C0E900007047D0E9001200
:101100004A6042681160C0E9000070472DE9F04F65
:1011100081B0002842D040F2F404C2F200042168F9
:10112000033020F0030B8B4538D840F25000C2F258
:1011300000004FF0FF3100F02FFA40F24C0AC2F2EB
:10114000000ADAF8000040F2EC0CC2F2000CDCF805
:1011500000100D1ABBF10C0F98BF4FF00C0B22685A
:10116000A2EB0B00854213D22768A7EB0B06DAF837
:1011700000E000BF0EEB05046068618821B905F14D
:101180000C01431A5B450DD2B0423A460546F1D3F5
:1011900040F25000C2F2000000F0D6F9002001B089
:1011A000BDE8F08F40F2F009C2F20009D9F8006002
:1011B00041F2B438C2F20008D8F800700BF1180000
:1011C00083420ED201206080381B61680844DAF83F
:1011D00000100844C8F80000864238BFC9F8000073
:1011E00020E00BF10C0901EB0B004FF4F5514EF828
:1011F00000100EEB00016368C1E901356060012356
:10120000638049680C3291421CBF7144886009EBCD
:101210000700C8F80000864240F2F001C2F2000167
:1012200038BF08604FF4F5502080DCF80000A04281
:1012300017D1DCF80000418800291FBF40F24801A7
:10124000C2F200010A6890420BD00968DAF8002067
:10125000406810444388002B18BF8142F8D1CCF875
:10126000000040F25000C2F2000000F06DF904F1FD
:101270000C0001B0BDE8F08FB0B513460446CAB209
:10128000042B02D2204603BB22E0A00701D0204657
:101290001BE042EA022040EA0041102B1AD3A3F1DE
:1012A000100C2CF00F0E04EB0E001030254600BF82
:1012B000C5E90011C5E902111035103B0F2BF7D815
:1012C000ACEB0E03042B06D213B11946FFF736F828
:1012D0002046B0BD2046A3F1040C012505EB9C0E71
:1012E000054600BF45F8041B043B032BFAD800EB6E
:1012F0008E000CF00303002BE7D1E9E72DE9F04164
:101300008846074600F046F80546E868FFF7FEFE07
:1013100004460026BCB1EA6820460021FFF7ACFF76
:101320002772667220464146082200F0CDF9FEF78A
:101330005DFF0646281D04F10C01FFF785FE3046CF
:10134000FEF758FF26463046BDE8F081B0B50446AA
:1013500000202072FEF74AFF054604F10C00FFF75B
:10136000B5FE2846FEF746FF2046BDE8B040FFF731
:1013700057BC0000B0B5044600202072FEF736FFCF
:10138000054604F10C00FFF7A1FE2846BDE8B04079
:10139000FEF730BF01464FF0FF3240F20400C2F2C8
:1013A000000000BF03788B4208BF704700F11000B7
:1013B00002F10102022AF5DD00207047F0B581B08C
:1013C00015460F4604463846FFF7E4FF0646FFF78A
:1013D000F7FB0436304600BF0068B042FCD1FFF78F
:1013E000FDFB47F08000207220462946082200F0CD
:1013F0006BF9FEF7FBFE054604F10C013046FFF7E2
:1014000023FE284601B0BDE8F040FEF7F3BE000021
:10141000007AC0097047000010B5FEF7E7FE0446E9
:1014200041F29010C2F20000008820B12046BDE8D1
:101430001040FEF7DFBE41F29C20C2F200000068BF
:10144000FFF7FCF8411E41F29C10C2F2000050F878
:101450003100A0F1140240F2FC0CC2F2000CDCF8E6
:1014600000309342E2D040F2F803C2F20003197058
:10147000DCF80030CCF8002000F1080141F208103F
:10148000C2F20000027803F11C0012B1FEF7B5FEB3
:10149000CCE7FEF7B2FEC9E7B0B50446FEF7A6FEFC
:1014A000054694F8340000F0F00040F0010084F8A4
:1014B000340094F8350041F29C11C2F2000101EBB6
:1014C000C00004F11401FFF7DBFDA06B41F29C2189
:1014D000C2F200010A68104308602846BDE8B04027
:1014E000FEF788BEB0B50546FEF780FE044605F15E
:1014F0001400FFF7F3FD95F8350041F29C11C2F29C
:10150000000101EBC000FFF7CDFD40B1A86B41F237
:101510009C21C2F200010A6822EA0000086020460D
:10152000BDE8B040FEF766BE70B51C4615460A46DB
:1015300006460221FFF742FF3046FFF757FDB5830D
:101540007472002070BD000070B50546FEF74EFEB7
:10155000044605F114063046FFF79EFD58B1A88BEE
:101560004FF6FF71884210D00130A8832046FEF765
:1015700041FE002070BD3046FFF710FD2046FEF70B
:1015800039FEFFF749FF002070BD2046FEF732FE0E
:101590006FF0020070BD000070B582B00646019188
:1015A000FEF724FE0446B08B38B10138B0832046E4
:1015B000FEF720FE002002B070BD019810B300F0CD
:1015C0002DFA054600202863727A06F11400294698
:1015D000FFF7E8FC0198012809DB05F1440601AAA0
:1015E0003046002100F03AFB304600F085FB2046F3
:1015F000FEF700FEFFF710FF286B002808BF002051
:1016000002B070BD2046FEF7F5FD6FF0010002B09C
:1016100070BD000080B582B009A0FFF7EBFC0BA005
:10162000FFF7E8FC12A0009014A00321012205237B
:10163000FFF7E0FC19A002B0BDE88040FFF7DABC7C
:101640000A205C207C202F0A000000002D2052542C
:10165000202D2020202020546872656164204F7066
:1016600065726174696E672053797374656D0A00E1
:101670004F6374202033203230323300202F207CFF
:10168000205C202020202025642E25642E25642027
:101690006275696C642025730A00000020323030C6
:1016A00036202D203230323020436F7079726967D6
:1016B00068742062792072742D7468726561642088
:1016C0007465616D0A00000010B5044682B1002304
:1016D000C85CE05418B101339A42F9D108E0501EB9
:1016E000984205D0E0180130D11A0139FEF72DFEDD
:1016F000204610BD0A46014622F00303192B21BFE4
:10170000A3F1180CC81C20F00300844533D3B0B5F6
:101710006FF01701091A194440F2F402C2F20002F4
:10172000116040F24C05C2F2000528604FF4F551FB
:10173000018012680C320023C0E90123438028682D
:10174000831840F24804C2F2000423608152012051
:101750005880C3E9012240F25000C2F2000007A104
:1017600001220023FFF7E0FE286840F2EC01C2F2FC
:1017700000010860B0BD03A0FFF73CBC6865617064
:10178000000000006D656D20696E69742C20657223
:10179000726F7220626567696E206164647265733E
:1017A0007320307825782C20616E6420656E64206B
:1017B0006164647265737320307825780A000000D4
:1017C000B0B541F29010C2F200000024048041F252
:1017D0009C15C2F2000500BF2819FFF729FC083448
:1017E000B4F5807FF8D140F2F800C2F200001F216A
:1017F000017040F2FC00C2F200000021016041F2E1
:101800009C20C2F20000016041F29410C2F200007C
:10181000BDE8B040FFF70CBC80B541F29C20C2F29D
:1018200000000068FEF70AFF41F29C11C2F20001BD
:1018300001EBC00050F8080CA0F1140140F2FC02CA
:10184000C2F2000211600830BDE88040FEF71BBD07
:1018500041F2A830C2F20000FFF7F2BB704700006F
:10186000F0B583B01F4615460E4601460120FFF72E
:1018700045FD04467CB13846FFF748FC034663B19A
:10188000DDE90810CDE900710290204631462A4674
:10189000FEF7FCFE05E0002403E02046FFF756FDBE
:1018A0000024204603B0F0BD80B500F0BDF8002054
:1018B00080BD0000B0B540F2FC00C2F20000056837
:1018C000FEF794FC04462846FEF730FF2846FFF753
:1018D00009FE042085F8340005F1440000F0E4F925
:1018E0002846FFF795FD012803D12846FFF742FD62
:1018F00003E005F11400FFF7ADFBFFF78DFD204677
:10190000BDE8B040FEF776BC80B500BF00F002F83D
:10191000FCE7000070B5FEF769FC0446FEF7ACFE7C
:10192000C8B141F29416C2F2000600BF35682846DD
:10193000FFF7C4FB6869FFF773F9A5F11400FFF71F
:1019400005FD2046FEF756FCFEF750FC0446FEF768
:1019500093FE0028EAD12046BDE87040FEF74ABC5D
:1019600010B584B020201F214FF4807241F2A023D3
:10197000C2F20003CDE90032CDE9021040F270045A
:10198000C2F2000407A141F60912C0F60002204687
:10199000002300F00BF8204604B0BDE8104000F032
:1019A00069B800BF7469646C6500000070B584B0EC
:1019B0001C4615460A4606460121FFF7FFFC0B9818
:1019C00002900A98019009980090089B3046294699
:1019D0002246FEF75BFE002004B070BDB0B50446A1
:1019E00094F8340000F00F0002281CBF4FF0FF30C5
:1019F000B0BDFEF7FBFB054604F11400FFF776FBD4
:101A000004F1440000F0E4F92846FEF7F3FB204619
:101A1000FFF742FD4FF00000B0BD000040F2FC00B7
:101A2000C2F2000000687047F0B581B00090FEF788
:101A3000DDFB054640F2FC00C2F2000004682046CF
:101A400000F030F804F1440600276A4630460021D1
:101A500000F004F9304600F04FF92846FEF7CAFBC3
:101A6000FFF7DAFC206B023008BF27634FF000005D
:101A700001B0F0BD80B590F8361080F83510012225
:101A800002FA01F18163022180F83410FFF7A6FF0A
:101A9000FFF7C4FF002818BFFFF7BEFC4FF000009F
:101AA00080BD0000B0B5044694F8340000F00F008B
:101AB00001281CBF4FF0FF30B0BDFEF797FB054675
:101AC0002046FFF70FFD94F8340000F0F00040F0DE
:101AD000020084F8340004F1440000F079F928464B
:101AE000FEF788FB4FF00000B0BD000010B50446C3
:101AF0006FF00100206304F11400FFF7F7FA2046AD
:101B0000FFF7CAFCBDE81040FFF786BC70B5FEF7D2
:101B10006DFB044640F2FC00C2F20000066896F835
:101B2000340000F00F0001281AD1354655F8140F83
:101B30006968884214D02846FFF7D8FA96F835002D
:101B400041F29C11C2F2000101EBC0002946FFF7EF
:101B50009DFA2046FEF74EFBFFF75EFC002070BDAD
:101B60002046FEF747FB002070BD000041F2A43084
:101B7000C2F200000068704780B541F2A430C2F2A2
:101B80000000016801310160FFF748FF016C013975
:101B9000016403D0BDE8804000F008B8C16B016467
:101BA000FFF7B4FFBDE88040AFF300802DE9F047B8
:101BB00082B06846FFF744FAFFF7D8FF0746FEF702
:101BC00015FB804641F2A835C2F200052846FFF712
:101BD0006FFAE0BB4FF6FE7AC7F6FF7AE94600BF20
:101BE0002C686069381A504531D8A4F11406304683
:101BF000FEF798FD14F80B0C10F0020F04BF00F074
:101C0000FE0004F80B0C48462146FFF72DFAD4E9F4
:101C100002108847FFF7AAFF07464846FFF748FA31
:101C200080B92046FFF76AFA14F80B0C00F00301A4
:101C3000032907D100F0FE0004F80B0C304600F039
:101C40005BF800BF2846FFF733FA0028C8D04046AB
:101C5000FEF7D0FA02B0BDE8F087000070B5154677
:101C60000E460446FEF7C2FA042E18D8DFE806F046
:101C70000306090E13002968616210E0616A296099
:101C80000DE0617A01F0FD01617208E0617A41F0D6
:101C90000201617203E0617A01F001012960FEF73F
:101CA000A9FA002070BD0000B0B50446FEF79EFA08
:101CB00005462046FEF736FD607A00F0FE006072B1
:101CC0002846FEF797FA2046FFF754FB0020B0BDE8
:101CD00070B582B01C4615460A4606460A21FFF733
:101CE0006DFB07980090069B304629462246FEF77A
:101CF00009FD02B070BD00002DE9F04782B08146B9
:101D0000FEF774FA80464846FEF70CFD99F8090084
:101D100000F0FE0089F80900FFF728FFD9F8241029
:101D20000844C9F8280041F2A83EC2F2000ECDF8DE
:101D300004E000214FF0010A4FF0140C4FF6FE733F
:101D4000C7F6FF7301AD00BF0EEBC10757F8040FD4
:101D5000019C84421CD00CEBC102D9F8280000BFC2
:101D60002468A41AA46A013C241A9C4207D3019C4B
:101D7000246845F821403E68019CB442F0D101310D
:101D80005FEACA7005D101980830019001E000BFF8
:101D90000121B1FA81F04FEA501A0029D4D041F262
:101DA000B030C2F20000016801310160019809F110
:101DB0001401FFF759F999F8090040F0010089F87A
:101DC00009004046FEF716FA002002B0BDE8F08791
:101DD000B0B50446607AC00704BF4FF0FF30B0BD15
:101DE000FEF704FA05462046FEF79CFC607A00F0F8
:101DF000FE0060722846FEF7FDF94FF00000B0BD0E
:101E00002DE9F04F87B09A46044606926518049172
:101E10000029B8BF4FF0FF354FF0200B059402E0CA
:101E200006980130069006980078252808D00028EA
:101E300000F09081AC4238BF207004F10104EFE75C
:101E4000069801304FF000080278A2F12003102B11
:101E500018D80421DFE803F00E1616101616161611
:101E60001616160A16121616140000BF48EA0108C4
:101E70000130E9E70821F9E72021F7E71021F5E72C
:101E80000121F3E70690A2F13001092904D806A840
:101E900000F0B6F906460EE02A2A0AD10130069073
:101EA0005AF8046BB6F1FF3FDCBF48F010087642E9
:101EB00001E04FF0FF36069801782E290AD1411C27
:101EC00006914178A1F13002092A07D806A800F04E
:101ED00097F90CE04FF0FF30D1460CE02A2904D1ED
:101EE000023006905AF8040B01E04FF0FF30D14663
:101EF0000028D8BF0020069A117841F004036C2B0B
:101F000002D10132069200E00021069A1278253AA9
:101F1000532A00F263800A23DFE812F058006000C1
:101F200060006000600060006000600060006000B1
:101F300060006000600060006000600060006000A1
:101F40006000600060006000600060006000600091
:101F50006000600060006000600060006000600081
:101F60006000600060006000600060006000600071
:101F70006000600060006000600060006000600061
:101F80006000710060006000600060006000600040
:101F90006000600060006000750054006000600038
:101FA000600060005400600060006000600060003D
:101FB0008900A20060006000B60060008A00600036
:101FC0006000730048F002080A2331E0AC423CBFD5
:101FD0002520207004F10104CA4621E7AC423CBF31
:101FE0002520207004F10100069A1178002976D08E
:101FF000A84238BF017004F10204CA4610E748F055
:102000004008102314E05FEAC8606ED4022E6BDB38
:10201000601E3146AC4238BF84F800B0A1F1010126
:1020200004F101040129F5DC841900265DE0082390
:10203000D9F8002009F1040A6C2906D0682904D1D6
:102040005FEA88714CBF12B292B25FFA88F1CDE9B3
:102050000060029120462946FEF77CFC0446DFE63C
:1020600059F8042B711C08BF0826B1FA81F14909FF
:1020700041EA0801C9B2CDE9006002912046294633
:102080001023FEF767FC2CE0CA465AF8042B002AFE
:1020900038A108BF0A46002336B100BFD15C002931
:1020A0001CBF01339E42F9D183421946C8BF014685
:1020B0000028D8BF19465FEAC8602FD48E422CDDB5
:1020C000701A2044AC4238BF84F800B0A6F1010673
:1020D00004F10104B142F5DB4E1E04461EE0511E20
:1020E00006910446CA469BE6013E09F1040AAC4249
:1020F0003CBFD9F80000207004F10104022EFFF665
:102100008FAE701CAC4238BF84F800B0A0F1010063
:1021100004F101040228F5DC82E6013E01290846AB
:10212000234614DBAB423CBF17781F70013802F125
:10213000010203F10103F5D10C44B142BFF670AEC8
:10214000013EAC4238BF84F800B004F10104B14252
:10215000F6DB65E604980028059AB8BFD04328B19D
:10216000AC42204628BF681E00210170A01A07B0AB
:10217000BDE8F08F284E554C4C29000000207047D8
:10218000002070470020704780B582B014200321E2
:10219000CDE900100DA040F60501C0F600010022B7
:1021A0004FF40073FFF75CFB40F2E801C2F200015C
:1021B0000860002802BF4FF0FF3002B080BDFFF77B
:1021C00059FC4FF0000002B080BD00BF6C65643167
:1021D0000000000080B5FEF709F8FEF7ABFDFFF741
:1021E00019FAFFF735FBFFF7EBFAFEF7A3FCFFF751
:1021F00035FBFFF7B5FBFFF70FFB002080BD0000AC
:1022000001680A78303A092A82BF002108467047DF
:1022100001F101024FF00001026012F8013C92F856
:1022200000C001EB810103EB410130390132ACF117
:1022300030030A2BF0D308467047000070B584B015
:10224000044641F24C00C4F20200416941F480416D
:102250004161016841F0020101600126CDE900669B
:1022600040F20045C4F6000528460621022200235C
:10227000FEF798FACDE900662846072102220023DE
:10228000FEF790FA284606210722FEF775FA28463F
:1022900007210722FEF770FA43F60000C4F201009E
:1022A000B4F5164F09DB11D0B4F5614F11D0B4F578
:1022B000E13F14D140F2C45110E0B4F5165F0BD0E9
:1022C000B4F5964F0BD142F2962107E041F24B1143
:1022D00004E040F6873101E044F22C51C16001680E
:1022E00021F001010160016821F4004101600168F1
:1022F00041F400510160016841F020010160016872
:1023000041F008010160016841F0040101600168C9
:1023100041F00101016040F22510C0F2001003906D
:1023200003A8FEF751F804B070BD02E008C8121F00
:1023300008C1002AFAD170477047002001E001C1AE
:10234000121F002AFBD170470000000000000000AF
:102350000102030406070809000001000200010051
:10236000030001000200010004000100020001005E
:10237000030001000200010005000100020001004D
:10238000030001000200010004000100020001003E
:10239000030001000200010006000100020001002C
:1023A000030001000200010004000100020001001E
:1023B000030001000200010005000100020001000D
:1023C00003000100020001000400010002000100FE
:1023D00003000100020001000700010002000100EB
:1023E00003000100020001000400010002000100DE
:1023F00003000100020001000500010002000100CD
:1024000003000100020001000400010002000100BD
:1024100003000100020001000600010002000100AB
:10242000030001000200010004000100020001009D
:10243000030001000200010005000100020001008C
:10244000030001000200010004000100020001007D
:10245000030001000200010068617264206661757A
:102460006C74206F6E2068616E646C65720D0A0D6D
:102470000A0068617264206661756C74206F6E205A
:102480007468726561643A2025730D0A0D0A00466E
:10249000505520616374697665210D0A00723030F1
:1024A0003A203078253038780A007230313A2030BE
:1024B00078253038780A007230323A20307825306A
:1024C00038780A007230333A203078253038780A6C
:1024D000007230343A203078253038780A00707332
:1024E000723A203078253038780A000081210008BF
:1024F0007D21000885210008182500080000002023
:10250000480000002A230008602500084800002039
:10251000701700003A23000880FE210A0100000025
:1025200008000020080000207800000002000000E1
:102530001800002018000020200000000500000006
:102540002800002028000020300000000A000000C1
:1025500038000020380000202C000000000000009F
:04000005080001D915
:00000001FF
