:020000040800F2
:1000000008040020ED010008F1010008F3010008D8
:10001000F5010008F7010008F901000800000000E0
:10002000000000000000000000000000FB010008CC
:10003000FD01000800000000FF01000801020008A7
:10004000030200080302000803020008030200087C
:10005000030200080302000803020008030200086C
:10006000030200080302000803020008030200085C
:10007000030200080302000803020008030200084C
:100080000302000800000000030200080302000849
:10009000030200080302000803020008030200082C
:1000A000030200080302000803020008030200081C
:1000B000030200080302000803020008030200080C
:1000C00003020008030200080302000803020008FC
:1000D00003020008030200080302000803020008EC
:1000E00003020008030200080302000803020008DC
:1000F00003020008030200080302000800000000D9
:1001000000000000030200080000000003020008D5
:1001100003020008000000000302000803020008B8
:10012000030200080302000803020008030200089B
:1001300003020008000000000000000003020008A5
:100140000302000803020008000000000000000095
:10015000000000000000000000000000000000009F
:100160000000000000000000000000000302000882
:100170000302000800000000000000000000000072
:100180000000000003020008000000000000000062
:10019000000000000000000000000000000000005F
:1001A0000000000000000000030200080302000835
:1001B0000302000803020008030200080000000018
:1001C0000000000003020008000000000000000022
:1001D0000302000803020008DFF80CD000F014F856
:1001E000004800471904000808040020054800479B
:1001F000FEE7FEE7FEE7FEE7FEE7FEE7FEE7FEE7D7
:10020000FEE7FEE7D9010008064C074D06E0E0686E
:1002100040F0010394E8070098471034AC42F6D34D
:10022000FFF7DEFF6C0400087C04000841F20000C8
:10023000C4F20200016841F4803101604FF40051C2
:100240004FF6FF7205E000BF0139114204BF0120E3
:100250007047036813F4003FF6D0016821F0807105
:1002600001604FF400514FF6FF7204E00139114272
:1002700004BF01207047036813F0007FF6D101210D
:10028000816047F28001C4F200010A6822F48072A2
:100290000A604FF48051425822F00F0242504258F7
:1002A00042F00402425044F24341C160016841F00F
:1002B000807101604FF470414FF6FF7205E000BF9E
:1002C0000139114204BF01207047036813F0007F19
:1002D000F6D0C16841F08071C160816841F00301CE
:1002E000816000BF816801F00C010C29FAD181689E
:1002F00021F0F00181600020704700004EF21000F4
:10030000CEF20000016841F00401016040F20000FB
:10031000C2F200000121017070470000F0B581B009
:100320004FF47A714143080944F6DF62C0F2D352B8
:10033000A0FB0202D6094AF27000CFF6FE7006FB5F
:10034000001445F68F70C0F20100814208D90027E1
:10035000451C00BF284600F009F80137B742F9D321
:10036000204601B0BDE8F040AFF3008040F200014C
:10037000C2F200010978002918BFAA2141434EF2B8
:100380001000CEF20000416000218160016841F060
:1003900001010160016801F001110129FAD0016831
:1003A00021F00101016000218160704741F24C00A1
:1003B000C4F20200016821F002010160016841F00D
:1003C0000201016040F20040C4F60000016821F41F
:1003D00040010160016841F480010160416821F43D
:1003E00000614160816821F440018160816841F4CD
:1003F00000018160C16821F44001C160C16841F41D
:100400008001C160416921F400614161416941F4A9
:100410000061416170470000B0B5FFF707FFFFF7CB
:10042000C5FFFFF76BFF40F21444C4F6000400253B
:10043000206825604FF4FA70FFF770FF206840F4E1
:10044000006020604FF4FA70FFF768FFF0E702E009
:1004500008C8121F08C1002AFAD17047704700204F
:1004600001E001C1121F002AFBD170477C04000883
:0C04700000000020080400005E040008EA
:04000005080001D915
:00000001FF
